{
  "_format": "hh-sol-artifact-1",
  "contractName": "AlveyNFT",
  "sourceName": "src/contracts/AlveyNFT.sol",
  "abi": [
    {
      "inputs": [],
      "stateMutability": "nonpayable",
      "type": "constructor"
    },
    {
      "inputs": [
        {
          "internalType": "address",
          "name": "sender",
          "type": "address"
        },
        {
          "internalType": "uint256",
          "name": "tokenId",
          "type": "uint256"
        },
        {
          "internalType": "address",
          "name": "owner",
          "type": "address"
        }
      ],
      "name": "ERC721IncorrectOwner",
      "type": "error"
    },
    {
      "inputs": [
        {
          "internalType": "address",
          "name": "operator",
          "type": "address"
        },
        {
          "internalType": "uint256",
          "name": "tokenId",
          "type": "uint256"
        }
      ],
      "name": "ERC721InsufficientApproval",
      "type": "error"
    },
    {
      "inputs": [
        {
          "internalType": "address",
          "name": "approver",
          "type": "address"
        }
      ],
      "name": "ERC721InvalidApprover",
      "type": "error"
    },
    {
      "inputs": [
        {
          "internalType": "address",
          "name": "operator",
          "type": "address"
        }
      ],
      "name": "ERC721InvalidOperator",
      "type": "error"
    },
    {
      "inputs": [
        {
          "internalType": "address",
          "name": "owner",
          "type": "address"
        }
      ],
      "name": "ERC721InvalidOwner",
      "type": "error"
    },
    {
      "inputs": [
        {
          "internalType": "address",
          "name": "receiver",
          "type": "address"
        }
      ],
      "name": "ERC721InvalidReceiver",
      "type": "error"
    },
    {
      "inputs": [
        {
          "internalType": "address",
          "name": "sender",
          "type": "address"
        }
      ],
      "name": "ERC721InvalidSender",
      "type": "error"
    },
    {
      "inputs": [
        {
          "internalType": "uint256",
          "name": "tokenId",
          "type": "uint256"
        }
      ],
      "name": "ERC721NonexistentToken",
      "type": "error"
    },
    {
      "inputs": [
        {
          "internalType": "address",
          "name": "owner",
          "type": "address"
        }
      ],
      "name": "OwnableInvalidOwner",
      "type": "error"
    },
    {
      "inputs": [
        {
          "internalType": "address",
          "name": "account",
          "type": "address"
        }
      ],
      "name": "OwnableUnauthorizedAccount",
      "type": "error"
    },
    {
      "anonymous": false,
      "inputs": [
        {
          "indexed": true,
          "internalType": "address",
          "name": "owner",
          "type": "address"
        },
        {
          "indexed": true,
          "internalType": "address",
          "name": "approved",
          "type": "address"
        },
        {
          "indexed": true,
          "internalType": "uint256",
          "name": "tokenId",
          "type": "uint256"
        }
      ],
      "name": "Approval",
      "type": "event"
    },
    {
      "anonymous": false,
      "inputs": [
        {
          "indexed": true,
          "internalType": "address",
          "name": "owner",
          "type": "address"
        },
        {
          "indexed": true,
          "internalType": "address",
          "name": "operator",
          "type": "address"
        },
        {
          "indexed": false,
          "internalType": "bool",
          "name": "approved",
          "type": "bool"
        }
      ],
      "name": "ApprovalForAll",
      "type": "event"
    },
    {
      "anonymous": false,
      "inputs": [
        {
          "indexed": false,
          "internalType": "uint256",
          "name": "_fromTokenId",
          "type": "uint256"
        },
        {
          "indexed": false,
          "internalType": "uint256",
          "name": "_toTokenId",
          "type": "uint256"
        }
      ],
      "name": "BatchMetadataUpdate",
      "type": "event"
    },
    {
      "anonymous": false,
      "inputs": [
        {
          "indexed": false,
          "internalType": "uint256",
          "name": "_tokenId",
          "type": "uint256"
        }
      ],
      "name": "MetadataUpdate",
      "type": "event"
    },
    {
      "anonymous": false,
      "inputs": [
        {
          "indexed": true,
          "internalType": "address",
          "name": "previousOwner",
          "type": "address"
        },
        {
          "indexed": true,
          "internalType": "address",
          "name": "newOwner",
          "type": "address"
        }
      ],
      "name": "OwnershipTransferred",
      "type": "event"
    },
    {
      "anonymous": false,
      "inputs": [
        {
          "indexed": true,
          "internalType": "address",
          "name": "from",
          "type": "address"
        },
        {
          "indexed": true,
          "internalType": "address",
          "name": "to",
          "type": "address"
        },
        {
          "indexed": true,
          "internalType": "uint256",
          "name": "tokenId",
          "type": "uint256"
        }
      ],
      "name": "Transfer",
      "type": "event"
    },
    {
      "inputs": [],
      "name": "MAX_MINTS_PER_WALLET",
      "outputs": [
        {
          "internalType": "uint256",
          "name": "",
          "type": "uint256"
        }
      ],
      "stateMutability": "view",
      "type": "function"
    },
    {
      "inputs": [],
      "name": "MINT_PRICE",
      "outputs": [
        {
          "internalType": "uint256",
          "name": "",
          "type": "uint256"
        }
      ],
      "stateMutability": "view",
      "type": "function"
    },
    {
      "inputs": [
        {
          "internalType": "address",
          "name": "to",
          "type": "address"
        },
        {
          "internalType": "uint256",
          "name": "tokenId",
          "type": "uint256"
        }
      ],
      "name": "approve",
      "outputs": [],
      "stateMutability": "nonpayable",
      "type": "function"
    },
    {
      "inputs": [
        {
          "internalType": "address",
          "name": "owner",
          "type": "address"
        }
      ],
      "name": "balanceOf",
      "outputs": [
        {
          "internalType": "uint256",
          "name": "",
          "type": "uint256"
        }
      ],
      "stateMutability": "view",
      "type": "function"
    },
    {
      "inputs": [
        {
          "internalType": "uint256",
          "name": "tokenId",
          "type": "uint256"
        }
      ],
      "name": "getApproved",
      "outputs": [
        {
          "internalType": "address",
          "name": "",
          "type": "address"
        }
      ],
      "stateMutability": "view",
      "type": "function"
    },
    {
      "inputs": [
        {
          "internalType": "address",
          "name": "owner",
          "type": "address"
        },
        {
          "internalType": "address",
          "name": "operator",
          "type": "address"
        }
      ],
      "name": "isApprovedForAll",
      "outputs": [
        {
          "internalType": "bool",
          "name": "",
          "type": "bool"
        }
      ],
      "stateMutability": "view",
      "type": "function"
    },
    {
      "inputs": [
        {
          "internalType": "string",
          "name": "uri",
          "type": "string"
        }
      ],
      "name": "mint",
      "outputs": [],
      "stateMutability": "payable",
      "type": "function"
    },
    {
      "inputs": [
        {
          "internalType": "address",
          "name": "",
          "type": "address"
        }
      ],
      "name": "mintedWallets",
      "outputs": [
        {
          "internalType": "uint256",
          "name": "",
          "type": "uint256"
        }
      ],
      "stateMutability": "view",
      "type": "function"
    },
    {
      "inputs": [],
      "name": "name",
      "outputs": [
        {
          "internalType": "string",
          "name": "",
          "type": "string"
        }
      ],
      "stateMutability": "view",
      "type": "function"
    },
    {
      "inputs": [],
      "name": "owner",
      "outputs": [
        {
          "internalType": "address",
          "name": "",
          "type": "address"
        }
      ],
      "stateMutability": "view",
      "type": "function"
    },
    {
      "inputs": [
        {
          "internalType": "uint256",
          "name": "tokenId",
          "type": "uint256"
        }
      ],
      "name": "ownerOf",
      "outputs": [
        {
          "internalType": "address",
          "name": "",
          "type": "address"
        }
      ],
      "stateMutability": "view",
      "type": "function"
    },
    {
      "inputs": [],
      "name": "renounceOwnership",
      "outputs": [],
      "stateMutability": "nonpayable",
      "type": "function"
    },
    {
      "inputs": [
        {
          "internalType": "address",
          "name": "from",
          "type": "address"
        },
        {
          "internalType": "address",
          "name": "to",
          "type": "address"
        },
        {
          "internalType": "uint256",
          "name": "tokenId",
          "type": "uint256"
        }
      ],
      "name": "safeTransferFrom",
      "outputs": [],
      "stateMutability": "nonpayable",
      "type": "function"
    },
    {
      "inputs": [
        {
          "internalType": "address",
          "name": "from",
          "type": "address"
        },
        {
          "internalType": "address",
          "name": "to",
          "type": "address"
        },
        {
          "internalType": "uint256",
          "name": "tokenId",
          "type": "uint256"
        },
        {
          "internalType": "bytes",
          "name": "data",
          "type": "bytes"
        }
      ],
      "name": "safeTransferFrom",
      "outputs": [],
      "stateMutability": "nonpayable",
      "type": "function"
    },
    {
      "inputs": [
        {
          "internalType": "address",
          "name": "operator",
          "type": "address"
        },
        {
          "internalType": "bool",
          "name": "approved",
          "type": "bool"
        }
      ],
      "name": "setApprovalForAll",
      "outputs": [],
      "stateMutability": "nonpayable",
      "type": "function"
    },
    {
      "inputs": [
        {
          "internalType": "bytes4",
          "name": "interfaceId",
          "type": "bytes4"
        }
      ],
      "name": "supportsInterface",
      "outputs": [
        {
          "internalType": "bool",
          "name": "",
          "type": "bool"
        }
      ],
      "stateMutability": "view",
      "type": "function"
    },
    {
      "inputs": [],
      "name": "symbol",
      "outputs": [
        {
          "internalType": "string",
          "name": "",
          "type": "string"
        }
      ],
      "stateMutability": "view",
      "type": "function"
    },
    {
      "inputs": [
        {
          "internalType": "uint256",
          "name": "tokenId",
          "type": "uint256"
        }
      ],
      "name": "tokenURI",
      "outputs": [
        {
          "internalType": "string",
          "name": "",
          "type": "string"
        }
      ],
      "stateMutability": "view",
      "type": "function"
    },
    {
      "inputs": [
        {
          "internalType": "address",
          "name": "from",
          "type": "address"
        },
        {
          "internalType": "address",
          "name": "to",
          "type": "address"
        },
        {
          "internalType": "uint256",
          "name": "tokenId",
          "type": "uint256"
        }
      ],
      "name": "transferFrom",
      "outputs": [],
      "stateMutability": "nonpayable",
      "type": "function"
    },
    {
      "inputs": [
        {
          "internalType": "address",
          "name": "newOwner",
          "type": "address"
        }
      ],
      "name": "transferOwnership",
      "outputs": [],
      "stateMutability": "nonpayable",
      "type": "function"
    },
    {
      "inputs": [],
      "name": "withdraw",
      "outputs": [],
      "stateMutability": "nonpayable",
      "type": "function"
    }
  ],
  "bytecode": "0x60806040523480156200001157600080fd5b50336040518060400160405280600881526020017f416c7665794e46540000000000000000000000000000000000000000000000008152506040518060400160405280600481526020017f414e465400000000000000000000000000000000000000000000000000000000815250816000908162000090919062000472565b508060019081620000a2919062000472565b505050600073ffffffffffffffffffffffffffffffffffffffff168173ffffffffffffffffffffffffffffffffffffffff16036200011a5760006040517f1e4fbdf70000000000000000000000000000000000000000000000000000000081526004016200011191906200059e565b60405180910390fd5b6200012b816200013260201b60201c565b50620005bb565b6000600760009054906101000a900473ffffffffffffffffffffffffffffffffffffffff16905081600760006101000a81548173ffffffffffffffffffffffffffffffffffffffff021916908373ffffffffffffffffffffffffffffffffffffffff1602179055508173ffffffffffffffffffffffffffffffffffffffff168173ffffffffffffffffffffffffffffffffffffffff167f8be0079c531659141344cd1fd0a4f28419497f9722a3daafe3b4186f6b6457e060405160405180910390a35050565b600081519050919050565b7f4e487b7100000000000000000000000000000000000000000000000000000000600052604160045260246000fd5b7f4e487b7100000000000000000000000000000000000000000000000000000000600052602260045260246000fd5b600060028204905060018216806200027a57607f821691505b60208210810362000290576200028f62000232565b5b50919050565b60008190508160005260206000209050919050565b60006020601f8301049050919050565b600082821b905092915050565b600060088302620002fa7fffffffffffffffffffffffffffffffffffffffffffffffffffffffffffffffff82620002bb565b620003068683620002bb565b95508019841693508086168417925050509392505050565b6000819050919050565b6000819050919050565b6000620003536200034d62000347846200031e565b62000328565b6200031e565b9050919050565b6000819050919050565b6200036f8362000332565b620003876200037e826200035a565b848454620002c8565b825550505050565b600090565b6200039e6200038f565b620003ab81848462000364565b505050565b5b81811015620003d357620003c760008262000394565b600181019050620003b1565b5050565b601f8211156200042257620003ec8162000296565b620003f784620002ab565b8101602085101562000407578190505b6200041f6200041685620002ab565b830182620003b0565b50505b505050565b600082821c905092915050565b6000620004476000198460080262000427565b1980831691505092915050565b600062000462838362000434565b9150826002028217905092915050565b6200047d82620001f8565b67ffffffffffffffff81111562000499576200049862000203565b5b620004a5825462000261565b620004b2828285620003d7565b600060209050601f831160018114620004ea5760008415620004d5578287015190505b620004e1858262000454565b86555062000551565b601f198416620004fa8662000296565b60005b828110156200052457848901518255600182019150602085019450602081019050620004fd565b8683101562000544578489015162000540601f89168262000434565b8355505b6001600288020188555050505b505050505050565b600073ffffffffffffffffffffffffffffffffffffffff82169050919050565b6000620005868262000559565b9050919050565b620005988162000579565b82525050565b6000602082019050620005b560008301846200058d565b92915050565b612a8280620005cb6000396000f3fe60806040526004361061012a5760003560e01c80638da5cb5b116100ab578063c002d23d1161006f578063c002d23d146103dc578063c87b56dd14610407578063d85d3d2714610444578063e78fba2214610460578063e985e9c51461048b578063f2fde38b146104c85761012a565b80638da5cb5b146102f757806395d89b4114610322578063a22cb4651461034d578063ada7c4ed14610376578063b88d4fde146103b35761012a565b80633ccfd60b116100f25780633ccfd60b1461022657806342842e0e1461023d5780636352211e1461026657806370a08231146102a3578063715018a6146102e05761012a565b806301ffc9a71461012f57806306fdde031461016c578063081812fc14610197578063095ea7b3146101d457806323b872dd146101fd575b600080fd5b34801561013b57600080fd5b5061015660048036038101906101519190611e15565b6104f1565b6040516101639190611e5d565b60405180910390f35b34801561017857600080fd5b50610181610503565b60405161018e9190611f08565b60405180910390f35b3480156101a357600080fd5b506101be60048036038101906101b99190611f60565b610595565b6040516101cb9190611fce565b60405180910390f35b3480156101e057600080fd5b506101fb60048036038101906101f69190612015565b6105b1565b005b34801561020957600080fd5b50610224600480360381019061021f9190612055565b6105c7565b005b34801561023257600080fd5b5061023b6106c9565b005b34801561024957600080fd5b50610264600480360381019061025f9190612055565b610721565b005b34801561027257600080fd5b5061028d60048036038101906102889190611f60565b610741565b60405161029a9190611fce565b60405180910390f35b3480156102af57600080fd5b506102ca60048036038101906102c591906120a8565b610753565b6040516102d791906120e4565b60405180910390f35b3480156102ec57600080fd5b506102f561080d565b005b34801561030357600080fd5b5061030c610821565b6040516103199190611fce565b60405180910390f35b34801561032e57600080fd5b5061033761084b565b6040516103449190611f08565b60405180910390f35b34801561035957600080fd5b50610374600480360381019061036f919061212b565b6108dd565b005b34801561038257600080fd5b5061039d600480360381019061039891906120a8565b6108f3565b6040516103aa91906120e4565b60405180910390f35b3480156103bf57600080fd5b506103da60048036038101906103d591906122a0565b61090b565b005b3480156103e857600080fd5b506103f1610930565b6040516103fe91906120e4565b60405180910390f35b34801561041357600080fd5b5061042e60048036038101906104299190611f60565b61093b565b60405161043b9190611f08565b60405180910390f35b61045e600480360381019061045991906123c4565b61094d565b005b34801561046c57600080fd5b50610475610aa5565b60405161048291906120e4565b60405180910390f35b34801561049757600080fd5b506104b260048036038101906104ad919061240d565b610aaa565b6040516104bf9190611e5d565b60405180910390f35b3480156104d457600080fd5b506104ef60048036038101906104ea91906120a8565b610b3e565b005b60006104fc82610bc4565b9050919050565b6060600080546105129061247c565b80601f016020809104026020016040519081016040528092919081815260200182805461053e9061247c565b801561058b5780601f106105605761010080835404028352916020019161058b565b820191906000526020600020905b81548152906001019060200180831161056e57829003601f168201915b5050505050905090565b60006105a082610c25565b506105aa82610cad565b9050919050565b6105c382826105be610cea565b610cf2565b5050565b600073ffffffffffffffffffffffffffffffffffffffff168273ffffffffffffffffffffffffffffffffffffffff16036106395760006040517f64a0ae920000000000000000000000000000000000000000000000000000000081526004016106309190611fce565b60405180910390fd5b600061064d8383610648610cea565b610d04565b90508373ffffffffffffffffffffffffffffffffffffffff168173ffffffffffffffffffffffffffffffffffffffff16146106c3578382826040517f64283d7b0000000000000000000000000000000000000000000000000000000081526004016106ba939291906124ad565b60405180910390fd5b50505050565b6106d1610f1e565b6106d9610821565b73ffffffffffffffffffffffffffffffffffffffff166108fc479081150290604051600060405180830381858888f1935050505015801561071e573d6000803e3d6000fd5b50565b61073c8383836040518060200160405280600081525061090b565b505050565b600061074c82610c25565b9050919050565b60008073ffffffffffffffffffffffffffffffffffffffff168273ffffffffffffffffffffffffffffffffffffffff16036107c65760006040517f89c62b640000000000000000000000000000000000000000000000000000000081526004016107bd9190611fce565b60405180910390fd5b600360008373ffffffffffffffffffffffffffffffffffffffff1673ffffffffffffffffffffffffffffffffffffffff168152602001908152602001600020549050919050565b610815610f1e565b61081f6000610fa5565b565b6000600760009054906101000a900473ffffffffffffffffffffffffffffffffffffffff16905090565b60606001805461085a9061247c565b80601f01602080910402602001604051908101604052809291908181526020018280546108869061247c565b80156108d35780601f106108a8576101008083540402835291602001916108d3565b820191906000526020600020905b8154815290600101906020018083116108b657829003601f168201915b5050505050905090565b6108ef6108e8610cea565b838361106b565b5050565b60096020528060005260406000206000915090505481565b6109168484846105c7565b61092a610921610cea565b858585856111da565b50505050565b662386f26fc1000081565b60606109468261138b565b9050919050565b662386f26fc10000341015610997576040517f08c379a000000000000000000000000000000000000000000000000000000000815260040161098e90612530565b60405180910390fd5b6003600960003373ffffffffffffffffffffffffffffffffffffffff1673ffffffffffffffffffffffffffffffffffffffff1681526020019081526020016000205410610a19576040517f08c379a0000000000000000000000000000000000000000000000000000000008152600401610a109061259c565b60405180910390fd5b6000600854905060086000815480929190610a33906125eb565b9190505550610a42338261149e565b610a4c81836114bc565b600960003373ffffffffffffffffffffffffffffffffffffffff1673ffffffffffffffffffffffffffffffffffffffff1681526020019081526020016000206000815480929190610a9c906125eb565b91905055505050565b600381565b6000600560008473ffffffffffffffffffffffffffffffffffffffff1673ffffffffffffffffffffffffffffffffffffffff16815260200190815260200160002060008373ffffffffffffffffffffffffffffffffffffffff1673ffffffffffffffffffffffffffffffffffffffff16815260200190815260200160002060009054906101000a900460ff16905092915050565b610b46610f1e565b600073ffffffffffffffffffffffffffffffffffffffff168173ffffffffffffffffffffffffffffffffffffffff1603610bb85760006040517f1e4fbdf7000000000000000000000000000000000000000000000000000000008152600401610baf9190611fce565b60405180910390fd5b610bc181610fa5565b50565b6000634906490660e01b7bffffffffffffffffffffffffffffffffffffffffffffffffffffffff1916827bffffffffffffffffffffffffffffffffffffffffffffffffffffffff19161480610c1e5750610c1d82611518565b5b9050919050565b600080610c31836115fa565b9050600073ffffffffffffffffffffffffffffffffffffffff168173ffffffffffffffffffffffffffffffffffffffff1603610ca457826040517f7e273289000000000000000000000000000000000000000000000000000000008152600401610c9b91906120e4565b60405180910390fd5b80915050919050565b60006004600083815260200190815260200160002060009054906101000a900473ffffffffffffffffffffffffffffffffffffffff169050919050565b600033905090565b610cff8383836001611637565b505050565b600080610d10846115fa565b9050600073ffffffffffffffffffffffffffffffffffffffff168373ffffffffffffffffffffffffffffffffffffffff1614610d5257610d518184866117fc565b5b600073ffffffffffffffffffffffffffffffffffffffff168173ffffffffffffffffffffffffffffffffffffffff1614610de357610d94600085600080611637565b6001600360008373ffffffffffffffffffffffffffffffffffffffff1673ffffffffffffffffffffffffffffffffffffffff168152602001908152602001600020600082825403925050819055505b600073ffffffffffffffffffffffffffffffffffffffff168573ffffffffffffffffffffffffffffffffffffffff1614610e66576001600360008773ffffffffffffffffffffffffffffffffffffffff1673ffffffffffffffffffffffffffffffffffffffff168152602001908152602001600020600082825401925050819055505b846002600086815260200190815260200160002060006101000a81548173ffffffffffffffffffffffffffffffffffffffff021916908373ffffffffffffffffffffffffffffffffffffffff160217905550838573ffffffffffffffffffffffffffffffffffffffff168273ffffffffffffffffffffffffffffffffffffffff167fddf252ad1be2c89b69c2b068fc378daa952ba7f163c4a11628f55a4df523b3ef60405160405180910390a4809150509392505050565b610f26610cea565b73ffffffffffffffffffffffffffffffffffffffff16610f44610821565b73ffffffffffffffffffffffffffffffffffffffff1614610fa357610f67610cea565b6040517f118cdaa7000000000000000000000000000000000000000000000000000000008152600401610f9a9190611fce565b60405180910390fd5b565b6000600760009054906101000a900473ffffffffffffffffffffffffffffffffffffffff16905081600760006101000a81548173ffffffffffffffffffffffffffffffffffffffff021916908373ffffffffffffffffffffffffffffffffffffffff1602179055508173ffffffffffffffffffffffffffffffffffffffff168173ffffffffffffffffffffffffffffffffffffffff167f8be0079c531659141344cd1fd0a4f28419497f9722a3daafe3b4186f6b6457e060405160405180910390a35050565b600073ffffffffffffffffffffffffffffffffffffffff168273ffffffffffffffffffffffffffffffffffffffff16036110dc57816040517f5b08ba180000000000000000000000000000000000000000000000000000000081526004016110d39190611fce565b60405180910390fd5b80600560008573ffffffffffffffffffffffffffffffffffffffff1673ffffffffffffffffffffffffffffffffffffffff16815260200190815260200160002060008473ffffffffffffffffffffffffffffffffffffffff1673ffffffffffffffffffffffffffffffffffffffff16815260200190815260200160002060006101000a81548160ff0219169083151502179055508173ffffffffffffffffffffffffffffffffffffffff168373ffffffffffffffffffffffffffffffffffffffff167f17307eab39ab6107e8899845ad3d59bd9653f200f220920489ca2b5937696c31836040516111cd9190611e5d565b60405180910390a3505050565b60008373ffffffffffffffffffffffffffffffffffffffff163b1115611384578273ffffffffffffffffffffffffffffffffffffffff1663150b7a02868685856040518563ffffffff1660e01b81526004016112399493929190612688565b6020604051808303816000875af192505050801561127557506040513d601f19601f8201168201806040525081019061127291906126e9565b60015b6112f9573d80600081146112a5576040519150601f19603f3d011682016040523d82523d6000602084013e6112aa565b606091505b5060008151036112f157836040517f64a0ae920000000000000000000000000000000000000000000000000000000081526004016112e89190611fce565b60405180910390fd5b805181602001fd5b63150b7a0260e01b7bffffffffffffffffffffffffffffffffffffffffffffffffffffffff1916817bffffffffffffffffffffffffffffffffffffffffffffffffffffffff19161461138257836040517f64a0ae920000000000000000000000000000000000000000000000000000000081526004016113799190611fce565b60405180910390fd5b505b5050505050565b606061139682610c25565b5060006006600084815260200190815260200160002080546113b79061247c565b80601f01602080910402602001604051908101604052809291908181526020018280546113e39061247c565b80156114305780601f1061140557610100808354040283529160200191611430565b820191906000526020600020905b81548152906001019060200180831161141357829003601f168201915b5050505050905060006114416118c0565b90506000815103611456578192505050611499565b60008251111561148b578082604051602001611473929190612752565b60405160208183030381529060405292505050611499565b611494846118d7565b925050505b919050565b6114b8828260405180602001604052806000815250611940565b5050565b806006600084815260200190815260200160002090816114dc9190612922565b507ff8e1a15aba9398e019f0b49df1a4fde98ee17ae345cb5f6b5e2c27f5033e8ce78260405161150c91906120e4565b60405180910390a15050565b60007f80ac58cd000000000000000000000000000000000000000000000000000000007bffffffffffffffffffffffffffffffffffffffffffffffffffffffff1916827bffffffffffffffffffffffffffffffffffffffffffffffffffffffff191614806115e357507f5b5e139f000000000000000000000000000000000000000000000000000000007bffffffffffffffffffffffffffffffffffffffffffffffffffffffff1916827bffffffffffffffffffffffffffffffffffffffffffffffffffffffff1916145b806115f357506115f282611964565b5b9050919050565b60006002600083815260200190815260200160002060009054906101000a900473ffffffffffffffffffffffffffffffffffffffff169050919050565b80806116705750600073ffffffffffffffffffffffffffffffffffffffff168273ffffffffffffffffffffffffffffffffffffffff1614155b156117a457600061168084610c25565b9050600073ffffffffffffffffffffffffffffffffffffffff168373ffffffffffffffffffffffffffffffffffffffff16141580156116eb57508273ffffffffffffffffffffffffffffffffffffffff168173ffffffffffffffffffffffffffffffffffffffff1614155b80156116fe57506116fc8184610aaa565b155b1561174057826040517fa9fbf51f0000000000000000000000000000000000000000000000000000000081526004016117379190611fce565b60405180910390fd5b81156117a257838573ffffffffffffffffffffffffffffffffffffffff168273ffffffffffffffffffffffffffffffffffffffff167f8c5be1e5ebec7d5bd14f71427d1e84f3dd0314c0f7b2291e5b200ac8c7c3b92560405160405180910390a45b505b836004600085815260200190815260200160002060006101000a81548173ffffffffffffffffffffffffffffffffffffffff021916908373ffffffffffffffffffffffffffffffffffffffff16021790555050505050565b6118078383836119ce565b6118bb57600073ffffffffffffffffffffffffffffffffffffffff168373ffffffffffffffffffffffffffffffffffffffff160361187c57806040517f7e27328900000000000000000000000000000000000000000000000000000000815260040161187391906120e4565b60405180910390fd5b81816040517f177e802f0000000000000000000000000000000000000000000000000000000081526004016118b29291906129f4565b60405180910390fd5b505050565b606060405180602001604052806000815250905090565b60606118e282610c25565b5060006118ed6118c0565b9050600081511161190d5760405180602001604052806000815250611938565b8061191784611a8f565b604051602001611928929190612752565b6040516020818303038152906040525b915050919050565b61194a8383611b5d565b61195f611955610cea565b60008585856111da565b505050565b60007f01ffc9a7000000000000000000000000000000000000000000000000000000007bffffffffffffffffffffffffffffffffffffffffffffffffffffffff1916827bffffffffffffffffffffffffffffffffffffffffffffffffffffffff1916149050919050565b60008073ffffffffffffffffffffffffffffffffffffffff168373ffffffffffffffffffffffffffffffffffffffff1614158015611a8657508273ffffffffffffffffffffffffffffffffffffffff168473ffffffffffffffffffffffffffffffffffffffff161480611a475750611a468484610aaa565b5b80611a8557508273ffffffffffffffffffffffffffffffffffffffff16611a6d83610cad565b73ffffffffffffffffffffffffffffffffffffffff16145b5b90509392505050565b606060006001611a9e84611c56565b01905060008167ffffffffffffffff811115611abd57611abc612175565b5b6040519080825280601f01601f191660200182016040528015611aef5781602001600182028036833780820191505090505b509050600082602001820190505b600115611b52578080600190039150507f3031323334353637383961626364656600000000000000000000000000000000600a86061a8153600a8581611b4657611b45612a1d565b5b04945060008503611afd575b819350505050919050565b600073ffffffffffffffffffffffffffffffffffffffff168273ffffffffffffffffffffffffffffffffffffffff1603611bcf5760006040517f64a0ae92000000000000000000000000000000000000000000000000000000008152600401611bc69190611fce565b60405180910390fd5b6000611bdd83836000610d04565b9050600073ffffffffffffffffffffffffffffffffffffffff168173ffffffffffffffffffffffffffffffffffffffff1614611c515760006040517f73c6ac6e000000000000000000000000000000000000000000000000000000008152600401611c489190611fce565b60405180910390fd5b505050565b600080600090507a184f03e93ff9f4daa797ed6e38ed64bf6a1f0100000000000000008310611cb4577a184f03e93ff9f4daa797ed6e38ed64bf6a1f0100000000000000008381611caa57611ca9612a1d565b5b0492506040810190505b6d04ee2d6d415b85acef81000000008310611cf1576d04ee2d6d415b85acef81000000008381611ce757611ce6612a1d565b5b0492506020810190505b662386f26fc100008310611d2057662386f26fc100008381611d1657611d15612a1d565b5b0492506010810190505b6305f5e1008310611d49576305f5e1008381611d3f57611d3e612a1d565b5b0492506008810190505b6127108310611d6e576127108381611d6457611d63612a1d565b5b0492506004810190505b60648310611d915760648381611d8757611d86612a1d565b5b0492506002810190505b600a8310611da0576001810190505b80915050919050565b6000604051905090565b600080fd5b600080fd5b60007fffffffff0000000000000000000000000000000000000000000000000000000082169050919050565b611df281611dbd565b8114611dfd57600080fd5b50565b600081359050611e0f81611de9565b92915050565b600060208284031215611e2b57611e2a611db3565b5b6000611e3984828501611e00565b91505092915050565b60008115159050919050565b611e5781611e42565b82525050565b6000602082019050611e726000830184611e4e565b92915050565b600081519050919050565b600082825260208201905092915050565b60005b83811015611eb2578082015181840152602081019050611e97565b60008484015250505050565b6000601f19601f8301169050919050565b6000611eda82611e78565b611ee48185611e83565b9350611ef4818560208601611e94565b611efd81611ebe565b840191505092915050565b60006020820190508181036000830152611f228184611ecf565b905092915050565b6000819050919050565b611f3d81611f2a565b8114611f4857600080fd5b50565b600081359050611f5a81611f34565b92915050565b600060208284031215611f7657611f75611db3565b5b6000611f8484828501611f4b565b91505092915050565b600073ffffffffffffffffffffffffffffffffffffffff82169050919050565b6000611fb882611f8d565b9050919050565b611fc881611fad565b82525050565b6000602082019050611fe36000830184611fbf565b92915050565b611ff281611fad565b8114611ffd57600080fd5b50565b60008135905061200f81611fe9565b92915050565b6000806040838503121561202c5761202b611db3565b5b600061203a85828601612000565b925050602061204b85828601611f4b565b9150509250929050565b60008060006060848603121561206e5761206d611db3565b5b600061207c86828701612000565b935050602061208d86828701612000565b925050604061209e86828701611f4b565b9150509250925092565b6000602082840312156120be576120bd611db3565b5b60006120cc84828501612000565b91505092915050565b6120de81611f2a565b82525050565b60006020820190506120f960008301846120d5565b92915050565b61210881611e42565b811461211357600080fd5b50565b600081359050612125816120ff565b92915050565b6000806040838503121561214257612141611db3565b5b600061215085828601612000565b925050602061216185828601612116565b9150509250929050565b600080fd5b600080fd5b7f4e487b7100000000000000000000000000000000000000000000000000000000600052604160045260246000fd5b6121ad82611ebe565b810181811067ffffffffffffffff821117156121cc576121cb612175565b5b80604052505050565b60006121df611da9565b90506121eb82826121a4565b919050565b600067ffffffffffffffff82111561220b5761220a612175565b5b61221482611ebe565b9050602081019050919050565b82818337600083830152505050565b600061224361223e846121f0565b6121d5565b90508281526020810184848401111561225f5761225e612170565b5b61226a848285612221565b509392505050565b600082601f8301126122875761228661216b565b5b8135612297848260208601612230565b91505092915050565b600080600080608085870312156122ba576122b9611db3565b5b60006122c887828801612000565b94505060206122d987828801612000565b93505060406122ea87828801611f4b565b925050606085013567ffffffffffffffff81111561230b5761230a611db8565b5b61231787828801612272565b91505092959194509250565b600067ffffffffffffffff82111561233e5761233d612175565b5b61234782611ebe565b9050602081019050919050565b600061236761236284612323565b6121d5565b90508281526020810184848401111561238357612382612170565b5b61238e848285612221565b509392505050565b600082601f8301126123ab576123aa61216b565b5b81356123bb848260208601612354565b91505092915050565b6000602082840312156123da576123d9611db3565b5b600082013567ffffffffffffffff8111156123f8576123f7611db8565b5b61240484828501612396565b91505092915050565b6000806040838503121561242457612423611db3565b5b600061243285828601612000565b925050602061244385828601612000565b9150509250929050565b7f4e487b7100000000000000000000000000000000000000000000000000000000600052602260045260246000fd5b6000600282049050600182168061249457607f821691505b6020821081036124a7576124a661244d565b5b50919050565b60006060820190506124c26000830186611fbf565b6124cf60208301856120d5565b6124dc6040830184611fbf565b949350505050565b7f496e73756666696369656e74207061796d656e74000000000000000000000000600082015250565b600061251a601483611e83565b9150612525826124e4565b602082019050919050565b600060208201905081810360008301526125498161250d565b9050919050565b7f4d6178206d696e74732072656163686564000000000000000000000000000000600082015250565b6000612586601183611e83565b915061259182612550565b602082019050919050565b600060208201905081810360008301526125b581612579565b9050919050565b7f4e487b7100000000000000000000000000000000000000000000000000000000600052601160045260246000fd5b60006125f682611f2a565b91507fffffffffffffffffffffffffffffffffffffffffffffffffffffffffffffffff8203612628576126276125bc565b5b600182019050919050565b600081519050919050565b600082825260208201905092915050565b600061265a82612633565b612664818561263e565b9350612674818560208601611e94565b61267d81611ebe565b840191505092915050565b600060808201905061269d6000830187611fbf565b6126aa6020830186611fbf565b6126b760408301856120d5565b81810360608301526126c9818461264f565b905095945050505050565b6000815190506126e381611de9565b92915050565b6000602082840312156126ff576126fe611db3565b5b600061270d848285016126d4565b91505092915050565b600081905092915050565b600061272c82611e78565b6127368185612716565b9350612746818560208601611e94565b80840191505092915050565b600061275e8285612721565b915061276a8284612721565b91508190509392505050565b60008190508160005260206000209050919050565b60006020601f8301049050919050565b600082821b905092915050565b6000600883026127d87fffffffffffffffffffffffffffffffffffffffffffffffffffffffffffffffff8261279b565b6127e2868361279b565b95508019841693508086168417925050509392505050565b6000819050919050565b600061281f61281a61281584611f2a565b6127fa565b611f2a565b9050919050565b6000819050919050565b61283983612804565b61284d61284582612826565b8484546127a8565b825550505050565b600090565b612862612855565b61286d818484612830565b505050565b5b818110156128915761288660008261285a565b600181019050612873565b5050565b601f8211156128d6576128a781612776565b6128b08461278b565b810160208510156128bf578190505b6128d36128cb8561278b565b830182612872565b50505b505050565b600082821c905092915050565b60006128f9600019846008026128db565b1980831691505092915050565b600061291283836128e8565b9150826002028217905092915050565b61292b82611e78565b67ffffffffffffffff81111561294457612943612175565b5b61294e825461247c565b612959828285612895565b600060209050601f83116001811461298c576000841561297a578287015190505b6129848582612906565b8655506129ec565b601f19841661299a86612776565b60005b828110156129c25784890151825560018201915060208501945060208101905061299d565b868310156129df57848901516129db601f8916826128e8565b8355505b6001600288020188555050505b505050505050565b6000604082019050612a096000830185611fbf565b612a1660208301846120d5565b9392505050565b7f4e487b7100000000000000000000000000000000000000000000000000000000600052601260045260246000fdfea26469706673582212202ccebae2fe0ea2774032f7d1d29b145d6c163889f7154d42329ec14dfacd94a664736f6c63430008140033",
  "linkReferences": {},
  "deployedLinkReferences": {}
}